{
  "contractName": "Sum",
  "abi": [
    {
      "constant": true,
      "inputs": [],
      "name": "sum",
      "outputs": [
        {
          "name": "sum",
          "type": "uint256"
        }
      ],
      "payable": false,
      "stateMutability": "view",
      "type": "function"
    }
  ],
  "bytecode": "0x6060604052600260005560116001553415601857600080fd5b60a7806100266000396000f300606060405260043610603f576000357c0100000000000000000000000000000000000000000000000000000000900463ffffffff168063853255cc146044575b600080fd5b3415604e57600080fd5b6054606a565b6040518082815260200191505060405180910390f35b6000600154600054019050809050905600a165627a7a72305820c15347c16e75b031dc08c53d5ae84d2a12bfcf6b477ceebabb921dcb354f4baa0029",
  "source": "pragma solidity ^0.4.18;\r\n\r\ncontract Sum {\r\n\tuint a = 2;\r\n\tuint b = 17;\r\n\tfunction sum() constant returns(uint sum){\r\n\t\tsum = a + b;\r\n\t\treturn sum;\r\n\t}\r\n}\r\n\r\n",
  "sourcePath": "C:\\Users\\Дима\\MetaCoin\\contracts\\test1.sol",
  "compiler": {
    "name": "solc",
    "version": "0.4.18+commit.9cf6e910.Emscripten.clang"
  },
  "schemaVersion": "1.0.1",
  "updatedAt": "2017-12-11T15:44:37.074Z"
}